{
  "contractName": "AuditContract",
  "abi": [
    {
      "anonymous": false,
      "inputs": [
        {
          "indexed": true,
          "internalType": "uint256",
          "name": "logId",
          "type": "uint256"
        },
        {
          "indexed": true,
          "internalType": "address",
          "name": "auditor",
          "type": "address"
        },
        {
          "indexed": false,
          "internalType": "uint256",
          "name": "timestamp",
          "type": "uint256"
        }
      ],
      "name": "AuditLogged",
      "type": "event"
    },
    {
      "inputs": [
        {
          "internalType": "uint256",
          "name": "",
          "type": "uint256"
        }
      ],
      "name": "auditTrail",
      "outputs": [
        {
          "internalType": "uint256",
          "name": "logId",
          "type": "uint256"
        },
        {
          "internalType": "string",
          "name": "actionType",
          "type": "string"
        },
        {
          "internalType": "string",
          "name": "recordHash",
          "type": "string"
        },
        {
          "internalType": "string",
          "name": "evidenceHash",
          "type": "string"
        },
        {
          "internalType": "uint256",
          "name": "timestamp",
          "type": "uint256"
        },
        {
          "internalType": "address",
          "name": "auditor",
          "type": "address"
        }
      ],
      "stateMutability": "view",
      "type": "function",
      "constant": true
    },
    {
      "inputs": [
        {
          "internalType": "uint256",
          "name": "",
          "type": "uint256"
        }
      ],
      "name": "logIdExists",
      "outputs": [
        {
          "internalType": "bool",
          "name": "",
          "type": "bool"
        }
      ],
      "stateMutability": "view",
      "type": "function",
      "constant": true
    },
    {
      "inputs": [
        {
          "internalType": "uint256",
          "name": "_logId",
          "type": "uint256"
        },
        {
          "internalType": "string",
          "name": "_actionType",
          "type": "string"
        },
        {
          "internalType": "string",
          "name": "_recordHash",
          "type": "string"
        },
        {
          "internalType": "string",
          "name": "_evidenceHash",
          "type": "string"
        }
      ],
      "name": "addAuditLog",
      "outputs": [],
      "stateMutability": "nonpayable",
      "type": "function"
    },
    {
      "inputs": [],
      "name": "getAuditCount",
      "outputs": [
        {
          "internalType": "uint256",
          "name": "",
          "type": "uint256"
        }
      ],
      "stateMutability": "view",
      "type": "function",
      "constant": true
    },
    {
      "inputs": [
        {
          "internalType": "uint256",
          "name": "_index",
          "type": "uint256"
        }
      ],
      "name": "getAudit",
      "outputs": [
        {
          "components": [
            {
              "internalType": "uint256",
              "name": "logId",
              "type": "uint256"
            },
            {
              "internalType": "string",
              "name": "actionType",
              "type": "string"
            },
            {
              "internalType": "string",
              "name": "recordHash",
              "type": "string"
            },
            {
              "internalType": "string",
              "name": "evidenceHash",
              "type": "string"
            },
            {
              "internalType": "uint256",
              "name": "timestamp",
              "type": "uint256"
            },
            {
              "internalType": "address",
              "name": "auditor",
              "type": "address"
            }
          ],
          "internalType": "struct AuditContract.AuditRecord",
          "name": "",
          "type": "tuple"
        }
      ],
      "stateMutability": "view",
      "type": "function",
      "constant": true
    }
  ],
  "bytecode": "0x608060405234801561001057600080fd5b50610ed4806100206000396000f3fe608060405234801561001057600080fd5b50600436106100575760003560e01c806317bf37a31461005c5780636353bde61461008c5780636b96bffc146100aa5780639a814999146100c6578063ddaf0929146100f6575b600080fd5b61007660048036038101906100719190610952565b61012b565b6040516100839190610c1b565b60405180910390f35b6100946103ad565b6040516100a19190610c3d565b60405180910390f35b6100c460048036038101906100bf919061097b565b6103b9565b005b6100e060048036038101906100db9190610952565b6105c2565b6040516100ed9190610be0565b60405180910390f35b610110600480360381019061010b9190610952565b6105e2565b60405161012296959493929190610c58565b60405180910390f35b6101336107e6565b6000828154811061016d577f4e487b7100000000000000000000000000000000000000000000000000000000600052603260045260246000fd5b90600052602060002090600602016040518060c0016040529081600082015481526020016001820180546101a090610de6565b80601f01602080910402602001604051908101604052809291908181526020018280546101cc90610de6565b80156102195780601f106101ee57610100808354040283529160200191610219565b820191906000526020600020905b8154815290600101906020018083116101fc57829003601f168201915b5050505050815260200160028201805461023290610de6565b80601f016020809104026020016040519081016040528092919081815260200182805461025e90610de6565b80156102ab5780601f10610280576101008083540402835291602001916102ab565b820191906000526020600020905b81548152906001019060200180831161028e57829003601f168201915b505050505081526020016003820180546102c490610de6565b80601f01602080910402602001604051908101604052809291908181526020018280546102f090610de6565b801561033d5780601f106103125761010080835404028352916020019161033d565b820191906000526020600020905b81548152906001019060200180831161032057829003601f168201915b50505050508152602001600482015481526020016005820160009054906101000a900473ffffffffffffffffffffffffffffffffffffffff1673ffffffffffffffffffffffffffffffffffffffff1673ffffffffffffffffffffffffffffffffffffffff16815250509050919050565b60008080549050905090565b6001600085815260200190815260200160002060009054906101000a900460ff161561041a576040517f08c379a000000000000000000000000000000000000000000000000000000000815260040161041190610bfb565b60405180910390fd5b60006040518060c001604052808681526020018581526020018481526020018381526020014281526020013373ffffffffffffffffffffffffffffffffffffffff16815250905060008190806001815401808255809150506001900390600052602060002090600602016000909190919091506000820151816000015560208201518160010190805190602001906104b3929190610832565b5060408201518160020190805190602001906104d0929190610832565b5060608201518160030190805190602001906104ed929190610832565b506080820151816004015560a08201518160050160006101000a81548173ffffffffffffffffffffffffffffffffffffffff021916908373ffffffffffffffffffffffffffffffffffffffff1602179055505050600180600087815260200190815260200160002060006101000a81548160ff0219169083151502179055503373ffffffffffffffffffffffffffffffffffffffff16857fa5e592605f0be6dd1fb55a62dfe72f4d864b7b1d3afc9fef66ec2ca3fdbb5e4e426040516105b39190610c3d565b60405180910390a35050505050565b60016020528060005260406000206000915054906101000a900460ff1681565b600081815481106105f257600080fd5b906000526020600020906006020160009150905080600001549080600101805461061b90610de6565b80601f016020809104026020016040519081016040528092919081815260200182805461064790610de6565b80156106945780601f1061066957610100808354040283529160200191610694565b820191906000526020600020905b81548152906001019060200180831161067757829003601f168201915b5050505050908060020180546106a990610de6565b80601f01602080910402602001604051908101604052809291908181526020018280546106d590610de6565b80156107225780601f106106f757610100808354040283529160200191610722565b820191906000526020600020905b81548152906001019060200180831161070557829003601f168201915b50505050509080600301805461073790610de6565b80601f016020809104026020016040519081016040528092919081815260200182805461076390610de6565b80156107b05780601f10610785576101008083540402835291602001916107b0565b820191906000526020600020905b81548152906001019060200180831161079357829003601f168201915b5050505050908060040154908060050160009054906101000a900473ffffffffffffffffffffffffffffffffffffffff16905086565b6040518060c001604052806000815260200160608152602001606081526020016060815260200160008152602001600073ffffffffffffffffffffffffffffffffffffffff1681525090565b82805461083e90610de6565b90600052602060002090601f01602090048101928261086057600085556108a7565b82601f1061087957805160ff19168380011785556108a7565b828001600101855582156108a7579182015b828111156108a657825182559160200191906001019061088b565b5b5090506108b491906108b8565b5090565b5b808211156108d15760008160009055506001016108b9565b5090565b60006108e86108e384610cff565b610cce565b90508281526020810184848401111561090057600080fd5b61090b848285610da4565b509392505050565b600082601f83011261092457600080fd5b81356109348482602086016108d5565b91505092915050565b60008135905061094c81610e87565b92915050565b60006020828403121561096457600080fd5b60006109728482850161093d565b91505092915050565b6000806000806080858703121561099157600080fd5b600061099f8782880161093d565b945050602085013567ffffffffffffffff8111156109bc57600080fd5b6109c887828801610913565b935050604085013567ffffffffffffffff8111156109e557600080fd5b6109f187828801610913565b925050606085013567ffffffffffffffff811115610a0e57600080fd5b610a1a87828801610913565b91505092959194509250565b610a2f81610d5c565b82525050565b610a3e81610d5c565b82525050565b610a4d81610d6e565b82525050565b6000610a5e82610d2f565b610a688185610d3a565b9350610a78818560208601610db3565b610a8181610e76565b840191505092915050565b6000610a9782610d2f565b610aa18185610d4b565b9350610ab1818560208601610db3565b610aba81610e76565b840191505092915050565b6000610ad2602683610d4b565b91507f4572726f723a204c6f6720494420616c726561647920657869737473206f6e2d60008301527f636861696e2e00000000000000000000000000000000000000000000000000006020830152604082019050919050565b600060c083016000830151610b436000860182610bc2565b5060208301518482036020860152610b5b8282610a53565b91505060408301518482036040860152610b758282610a53565b91505060608301518482036060860152610b8f8282610a53565b9150506080830151610ba46080860182610bc2565b5060a0830151610bb760a0860182610a26565b508091505092915050565b610bcb81610d9a565b82525050565b610bda81610d9a565b82525050565b6000602082019050610bf56000830184610a44565b92915050565b60006020820190508181036000830152610c1481610ac5565b9050919050565b60006020820190508181036000830152610c358184610b2b565b905092915050565b6000602082019050610c526000830184610bd1565b92915050565b600060c082019050610c6d6000830189610bd1565b8181036020830152610c7f8188610a8c565b90508181036040830152610c938187610a8c565b90508181036060830152610ca78186610a8c565b9050610cb66080830185610bd1565b610cc360a0830184610a35565b979650505050505050565b6000604051905081810181811067ffffffffffffffff82111715610cf557610cf4610e47565b5b8060405250919050565b600067ffffffffffffffff821115610d1a57610d19610e47565b5b601f19601f8301169050602081019050919050565b600081519050919050565b600082825260208201905092915050565b600082825260208201905092915050565b6000610d6782610d7a565b9050919050565b60008115159050919050565b600073ffffffffffffffffffffffffffffffffffffffff82169050919050565b6000819050919050565b82818337600083830152505050565b60005b83811015610dd1578082015181840152602081019050610db6565b83811115610de0576000848401525b50505050565b60006002820490506001821680610dfe57607f821691505b60208210811415610e1257610e11610e18565b5b50919050565b7f4e487b7100000000000000000000000000000000000000000000000000000000600052602260045260246000fd5b7f4e487b7100000000000000000000000000000000000000000000000000000000600052604160045260246000fd5b6000601f19601f8301169050919050565b610e9081610d9a565b8114610e9b57600080fd5b5056fea2646970667358221220ba2960e36302ea7c991d36170b73ef51f19d9d7d0b70b93a7f7b16216ccf8e5864736f6c63430008000033",
  "immutableReferences": {},
  "source": "// SPDX-License-Identifier: MIT\r\npragma solidity ^0.8.0;\r\n\r\ncontract AuditContract {\r\n    \r\n    struct AuditRecord {\r\n        uint256 logId;        // Link to MySQL Log_ID\r\n        string actionType;    // Tiny string: \"CREATED\", \"VERIFIED\"\r\n        string recordHash;    // Hash of the DB record details\r\n        string evidenceHash;  // Hash of the file (if any)\r\n        uint256 timestamp;    // Blockchain timestamp\r\n        address auditor;      // Who committed this?\r\n    }\r\n\r\n    // Using an array ensures order is preserved (0, 1, 2...)\r\n    AuditRecord[] public auditTrail;\r\n    \r\n    // Mapping for quick validity checks (prevents duplicate Log IDs)\r\n    mapping(uint256 => bool) public logIdExists;\r\n\r\n    event AuditLogged(uint256 indexed logId, address indexed auditor, uint256 timestamp);\r\n\r\n    function addAuditLog(\r\n        uint256 _logId,\r\n        string memory _actionType,\r\n        string memory _recordHash,\r\n        string memory _evidenceHash\r\n    ) public {\r\n        require(!logIdExists[_logId], \"Error: Log ID already exists on-chain.\");\r\n\r\n        AuditRecord memory newRecord = AuditRecord({\r\n            logId: _logId,\r\n            actionType: _actionType,\r\n            recordHash: _recordHash,\r\n            evidenceHash: _evidenceHash,\r\n            timestamp: block.timestamp,\r\n            auditor: msg.sender\r\n        });\r\n\r\n        auditTrail.push(newRecord);\r\n        logIdExists[_logId] = true;\r\n\r\n        emit AuditLogged(_logId, msg.sender, block.timestamp);\r\n    }\r\n\r\n    // Get total count (for looping)\r\n    function getAuditCount() public view returns (uint256) {\r\n        return auditTrail.length;\r\n    }\r\n\r\n    // Get specific record\r\n    function getAudit(uint256 _index) public view returns (AuditRecord memory) {\r\n        return auditTrail[_index];\r\n    }\r\n}\r\n",
  "sourcePath": "C:\\Users\\Siya K\\Downloads\\P_ANTI\\P_ANTI\\audit-blockchain\\contracts\\AuditContract.sol",
  "compiler": {
    "name": "solc",
    "version": "0.8.0+commit.c7dfd78e.Emscripten.clang"
  },
  "schemaVersion": "3.4.16",
  "updatedAt": "2026-02-04T14:19:27.192Z",
  "networkType": "ethereum",
  "devdoc": {
    "kind": "dev",
    "methods": {},
    "version": 1
  },
  "userdoc": {
    "kind": "user",
    "methods": {},
    "version": 1
  }
}